:03000000020006F5
:03005F0002000399
:0300030002007E7A
:20006200AE82AF838E048F051EBEFF011FEC4D600A7DEF7C02DDFEDCFC80E92275A0FE20FD
:20008200B02D90001412006230B0FD900014120062050874F825085003750800AF088FF0C8
:2000A20005F07401800225E0D5F0FBFFF4F5A020B1CD90001412006230B1FD9000141200BB
:2000C20062E508700575080780021508AF088FF005F07401800225E0D5F0FBF4F5A0809FA8
:06003500E478FFF6D8FD9F
:200013007900E94400601B7A009000E6780175A000E493F2A308B8000205A0D9F4DAF275AD
:02003300A0FF2C
:20003B007800E84400600A790175A000E4F309D8FC7800E84400600C7900900001E4F0A3C3
:04005B00D8FCD9FAFA
:0D0006007581081200E2E58260030200032C
:0400E2007582002201
:00000001FF
