:03000000020006F5
:03005F0002000399
:0300030002007E7A
:20006200AE82AF838E048F051EBEFF011FEC4D600A7DEF7C02DDFEDCFC80E92220B1FD90D2
:12008200001412006230B1FD900014120062B2A080EA32
:06003500E478FFF6D8FD9F
:200013007900E94400601B7A00900098780175A000E493F2A308B8000205A0D9F4DAF275FB
:02003300A0FF2C
:20003B007800E84400600A790175A000E4F309D8FC7800E84400600C7900900001E4F0A3C3
:04005B00D8FCD9FAFA
:0D000600758107120094E58260030200037B
:04009400758200224F
:00000001FF
