:03000000020006F5
:03005F0002000399
:030003000200B345
:20006200AE82AF838E048F051EBEFF011FEC4D600A7DEF7C02DDFEDCFC80E9227F01EF6061
:2000820015EFF4F5A0900064C007120062D0078F06EE2EFF80E8227F80EF6014EFF4F5A0B7
:1900A200900064C007120062D007EFC313FF80E92212007E12009980F83D
:06003500E478FFF6D8FD9F
:200013007900E94400601B7A009000BF780175A000E493F2A308B8000205A0D9F4DAF275D4
:02003300A0FF2C
:20003B007800E84400600A790175A000E4F309D8FC7800E84400600C7900900001E4F0A3C3
:04005B00D8FCD9FAFA
:0D0006007581071200BBE582600302000354
:0400BB007582002228
:00000001FF
