:03000000020006F5
:20005F0075083F750906750A5B750B4F750C66750D6D750E7D750F0775107F75116F7512B7
:16007F007775137C75143975155E751679751771751800020003B3
:03000300020121D6
:20009500AE82AF838E048F051EBEFF011FEC4D600A7DEF7C02DDFEDCFC80E922E582FF2473
:2000B500F75003020119EF240A83F582EF240D83F583E47319DBE3EBF3FB030B130100006A
:2000D500000000010101D2A4D2A3D2A28036D2A4D2A3C2A2802ED2A4C2A3D2A28026D2A48B
:2000F500C2A3C2A2801EC2A4D2A3D2A28016C2A4D2A3C2A2800EC2A4C2A3D2A28006C2A4A7
:20011500C2A3C2A2E5192408F98780227519017582011200B17519107582011200B1751984
:20013500097582021200B17519107582021200B17519097582031200B1751910758203128D
:2001550000B17519067582041200B17519107582041200B17519017582051200B17519103F
:200175007582051200B17519017582061200B17519107582061200B175190175820712005F
:1F019500B17519107582071200B17519087582081200B17519107582081200B10201215F
:06003500E478FFF6D8FD9F
:200013007900E94400601B7A009001B8780175A000E493F2A308B8000205A0D9F4DAF275DA
:02003300A0FF2C
:20003B007800E84400600A790175A000E4F309D8FC7800E84400600C7900900001E4F0A3C3
:04005B00D8FCD9FAFA
:0D0006007581191201B4E582600302000348
:0401B400758200222E
:00000001FF
