:03000000020006F5
:20005F0075083F750906750A5B750B4F750C66750D6D750E7D750F0775107F75116F7512B7
:16007F007775137C75143975155E751679751771751800020003B3
:030003000204C92B
:20009500AE82AF838E048F051EBEFF011FEC4D600A7DEF7C02DDFEDCFC80E922E582FF2473
:2000B500F75003020119EF240A83F582EF240D83F583E47319DBE3EBF3FB030B130100006A
:2000D500000000010101D2A4D2A3D2A28036D2A4D2A3C2A2802ED2A4C2A3D2A28026D2A48B
:2000F500C2A3C2A2801EC2A4D2A3D2A28016C2A4D2A3C2A2800EC2A4C2A3D2A28006C2A4A7
:20011500C2A3C2A2E5332408F98780227FEF7E02DFFEDEFC22AF82C2A6C2A58F80D2A7123A
:200135000121C2A7020121AF82D2A6C2A58F80D2A7120121C2A7020121AF82BF010BAE19DF
:200155001E74804EF58202012ABF020EAF19743F2FFF74804FF58202012A227582381201C3
:200175002A75820C12012A75820612012A75820102012A851A1912014E851B8202013C85A2
:200195001C1912014E7F00EF251DFCE4351EFDAE1F8C828D838EF012058EFE600C8E82C08C
:2001B5000712013CD0070F80DE22AE82AF837C017D007B008B017A00C3E99520EA648085DD
:2001D50021F063F08095F0501E8E338F348C828D83C007C006C003120524AC82AD83D003D5
:2001F500D006D0070B80CD8C828D832285221912014EAF25EF603F8F057E00ED24FFF520EB
:20021500EE34FFF52190000AC0071201BFAD82AE838D338E348523828524831204FB75336E
:200235000A753400120541AD8274302DF58212013CD0071F80BE2285261912014EE5282030
:20025500E70C75822B12013CAE27AF28800F75822D12013CC3E49527FEE49528FFAD29EDB3
:2002750060518D037C00EB24FFF520EC34FFF52190000AC007C006C0051201BFAB82AC833A
:20029500D005D006D0078B338C348E828F83C007C006C0051204FB75330A75340012054111
:2002B500AB8274302BF58212013CD005D006D0071D80AC22852A1912014EAF2DEF60558F42
:2002D500057E00ED24FFF520EE34FFF521900010C0071201BFAD82AE838D338E34852B82DD
:2002F500852C831204FBE5828583F0D007540FFDBD0A0050108D0674302EF582C007120131
:200315003CD007800C74372DF582C00712013CD0071F80A822852E1912014EAF31EF603AEE
:200335008F057E00ED24FFF520EE34FFF521900002C0071201BFAD82AE838D338E34852F79
:20035500828530831204FBE5828583F054012430F58212013CD0071F80C3227F007590FF11
:20037500C2932097119000141200953097FD9000141200957F01209611900014120095302F
:2003950096FD9000141200957F052095119000141200953095FD9000141200957F0920948C
:2003B500119000141200953094FD9000141200957F0D7590FFC292209711900014120095C9
:2003D5003097FD9000141200957F022096119000141200953096FD9000141200957F0620B3
:2003F50095119000141200953095FD9000141200957F0A2094119000141200953094FD9000
:2004150000141200957F0E7590FFC2912097119000141200953097FD9000141200957F0384
:200435002096119000141200953096FD9000141200957F072095119000141200953095FD2E
:200455009000141200957F0B2094119000141200953094FD9000141200957F0F7590FFC242
:20047500902097119000141200953097FD9000141200957F0420961190001412009530965A
:20049500FD9000141200957F082095119000141200953095FD9000141200957F0C2094110A
:2004B5009000141200953094FD9000141200957F108F8222120170751DAE751E05751F809F
:2004D500751C01758201120194120370E582F53260F78532237524007522017525027582CE
:0604F5000212020180E387
:0805AE0063786C646164610074
:2004FB007A10E4FBFCE58225E0F582E58333F583EB33FBEC33FCEB9533F5F0EC95344006BF
:09051B00FCABF0438201DADD22A1
:06003500E478FFF6D8FD9F
:200013007900E94400601B7A009005B6780175A000E493F2A308B8000205A0D9F4DAF275D8
:02003300A0FF2C
:1D052400E5828533F0A4C582C0F08534F0A4D0F025F0C5838533F0A42583F5832218
:20054100E533453460467A01E53325E0F533E534334012F534E5829533E583953440030A2F
:2005610080E6C3E53413F534E53313F533C3E5829533F5F0E58395344005F58385F082C32A
:0D058100E53413F534E53313F533DAE122E8
:20003B007800E84400600A790175A000E4F309D8FC7800E84400600C7900900001E4F0A3C3
:04005B00D8FCD9FAFA
:0D0006007581341205AAE582600302000333
:1C058E0020F71430F6148883A88220F507E6A88375830022E280F7E49322E0227C
:0405AA007582002234
:00000001FF
