:03000000020006F5
:20005F0075083F750906750A5B750B4F750C66750D6D750E7D750F0775107F75116F7512B7
:16007F007775137C75143975155E751679751771751800020003B3
:0300030002037085
:20009500AE82AF838E048F051EBEFF011FEC4D600A7DEF7C02DDFEDCFC80E922E582FF2473
:2000B500F75003020119EF240A83F582EF240D83F583E47319DBE3EBF3FB030B130100006A
:2000D500000000010101D2A4D2A3D2A28036D2A4D2A3C2A2802ED2A4C2A3D2A28026D2A48B
:2000F500C2A3C2A2801EC2A4D2A3D2A28016C2A4D2A3C2A2800EC2A4C2A3D2A28006C2A4A7
:20011500C2A3C2A2E5322408F98780227FEF7E02DFFEDEFC22AF82C2A6C2A58F80D2A7123B
:200135000121C2A7020121AF82D2A6C2A58F80D2A7120121C2A7020121AF82BF010BAE19DF
:200155001E74804EF58202012ABF020EAF19743F2FFF74804FF58202012A227582381201C3
:200175002A75820C12012A75820612012A75820102012A851A1912014E851B8202013C85A2
:200195001C1912014E7F00EF251DFCE4351EFDAE1F8C828D838EF0120426FE600C8E82C0F5
:2001B5000712013CD0070F80DE22AE82AF837C017D007B008B017A00C3E99520EA648085DD
:2001D50021F063F08095F0501E8E328F338C828D83C007C006C0031203BCAC82AD83D00341
:2001F500D006D0070B80CD8C828D832285221912014EAF25EF603F8F057E00ED24FFF520EB
:20021500EE34FFF52190000AC0071201BFAD82AE838D328E338523828524831203937532DA
:200235000A7533001203D9AD8274302DF58212013CD0071F80BE2285261912014EE528209B
:20025500E70C75822B12013CAE27AF28800F75822D12013CC3E49527FEE49528FFAD29EDB3
:2002750060518D037C00EB24FFF520EC34FFF52190000AC007C006C0051201BFAB82AC833A
:20029500D005D006D0078B328C338E828F83C007C006C00512039375320A7533001203D9E8
:2002B500AB8274302BF58212013CD005D006D0071D80AC22852A1912014EAF2DEF60558F42
:2002D500057E00ED24FFF520EE34FFF521900010C0071201BFAD82AE838D328E33852B82DF
:2002F500852C83120393E5828583F0D007540FFDBD0A0050108D0674302EF582C00712019A
:200315003CD007800C74372DF582C00712013CD0071F80A822852E1912014EAF31EF603AEE
:200335008F057E00ED24FFF520EE34FFF521900002C0071201BFAD82AE838D328E33852F7B
:2003550082853083120393E5828583F054012430F58212013CD0071F80C322120170751AEB
:1E03750001751B68758201120188751D46751E04751F80751C0375820112019480FEAA
:0804460063786C6461646100DD
:200393007A10E4FBFCE58225E0F582E58333F583EB33FBEC33FCEB9532F5F0EC953340062A
:0903B300FCABF0438201DADD220B
:06003500E478FFF6D8FD9F
:200013007900E94400601B7A0090044E780175A000E493F2A308B8000205A0D9F4DAF27541
:02003300A0FF2C
:1D03BC00E5828532F0A4C582C0F08533F0A4D0F025F0C5838532F0A42583F5832285
:2003D900E532453360467A01E53225E0F532E533334012F533E5829532E583953340030AA1
:2003F90080E6C3E53313F533E53213F532C3E5829532F5F0E58395334005F58385F082C39A
:0D041900E53313F533E53213F532DAE12255
:20003B007800E84400600A790175A000E4F309D8FC7800E84400600C7900900001E4F0A3C3
:04005B00D8FCD9FAFA
:0D000600758133120442E58260030200039D
:1C04260020F71430F6148883A88220F507E6A88375830022E280F7E49322E022E5
:04044200758200229D
:00000001FF
